{
  "_format": "hh-sol-artifact-1",
  "contractName": "EscrowHub",
  "sourceName": "contracts/EscrowHub.sol",
  "abi": [
    {
      "inputs": [],
      "stateMutability": "nonpayable",
      "type": "constructor"
    },
    {
      "anonymous": false,
      "inputs": [
        {
          "indexed": false,
          "internalType": "address",
          "name": "previousAdmin",
          "type": "address"
        },
        {
          "indexed": false,
          "internalType": "address",
          "name": "newAdmin",
          "type": "address"
        }
      ],
      "name": "AdminChanged",
      "type": "event"
    },
    {
      "anonymous": false,
      "inputs": [
        {
          "indexed": true,
          "internalType": "address",
          "name": "beacon",
          "type": "address"
        }
      ],
      "name": "BeaconUpgraded",
      "type": "event"
    },
    {
      "anonymous": false,
      "inputs": [
        {
          "indexed": true,
          "internalType": "uint256",
          "name": "escrowId",
          "type": "uint256"
        },
        {
          "indexed": false,
          "internalType": "string",
          "name": "cid",
          "type": "string"
        },
        {
          "indexed": false,
          "internalType": "address",
          "name": "buyer",
          "type": "address"
        },
        {
          "indexed": false,
          "internalType": "address",
          "name": "seller",
          "type": "address"
        },
        {
          "indexed": true,
          "internalType": "uint256",
          "name": "amount",
          "type": "uint256"
        },
        {
          "indexed": true,
          "internalType": "uint256",
          "name": "fee",
          "type": "uint256"
        },
        {
          "indexed": false,
          "internalType": "enum EscrowHub.EscrowState",
          "name": "state",
          "type": "uint8"
        }
      ],
      "name": "EscrowCreated",
      "type": "event"
    },
    {
      "anonymous": false,
      "inputs": [
        {
          "indexed": true,
          "internalType": "uint256",
          "name": "escrowId",
          "type": "uint256"
        },
        {
          "indexed": false,
          "internalType": "string",
          "name": "cid",
          "type": "string"
        },
        {
          "indexed": false,
          "internalType": "address",
          "name": "buyer",
          "type": "address"
        },
        {
          "indexed": false,
          "internalType": "address",
          "name": "seller",
          "type": "address"
        },
        {
          "indexed": false,
          "internalType": "uint256",
          "name": "amount",
          "type": "uint256"
        },
        {
          "indexed": false,
          "internalType": "uint256",
          "name": "fee",
          "type": "uint256"
        },
        {
          "indexed": true,
          "internalType": "enum EscrowHub.EscrowState",
          "name": "state",
          "type": "uint8"
        }
      ],
      "name": "EscrowUpdated",
      "type": "event"
    },
    {
      "anonymous": false,
      "inputs": [
        {
          "indexed": false,
          "internalType": "uint8",
          "name": "version",
          "type": "uint8"
        }
      ],
      "name": "Initialized",
      "type": "event"
    },
    {
      "anonymous": false,
      "inputs": [
        {
          "indexed": true,
          "internalType": "address",
          "name": "previousOwner",
          "type": "address"
        },
        {
          "indexed": true,
          "internalType": "address",
          "name": "newOwner",
          "type": "address"
        }
      ],
      "name": "OwnershipTransferred",
      "type": "event"
    },
    {
      "anonymous": false,
      "inputs": [
        {
          "indexed": true,
          "internalType": "address",
          "name": "implementation",
          "type": "address"
        }
      ],
      "name": "Upgraded",
      "type": "event"
    },
    {
      "inputs": [
        {
          "internalType": "uint256",
          "name": "_escrowId",
          "type": "uint256"
        }
      ],
      "name": "claimAfterExpire",
      "outputs": [],
      "stateMutability": "nonpayable",
      "type": "function"
    },
    {
      "inputs": [
        {
          "internalType": "uint256",
          "name": "_escrowId",
          "type": "uint256"
        }
      ],
      "name": "deliver",
      "outputs": [],
      "stateMutability": "nonpayable",
      "type": "function"
    },
    {
      "inputs": [
        {
          "internalType": "uint256",
          "name": "escrowId",
          "type": "uint256"
        }
      ],
      "name": "fetchEscrow",
      "outputs": [
        {
          "components": [
            {
              "internalType": "uint256",
              "name": "id",
              "type": "uint256"
            },
            {
              "internalType": "string",
              "name": "cid",
              "type": "string"
            },
            {
              "internalType": "address payable",
              "name": "buyer",
              "type": "address"
            },
            {
              "internalType": "address payable",
              "name": "seller",
              "type": "address"
            },
            {
              "internalType": "uint256",
              "name": "amount",
              "type": "uint256"
            },
            {
              "internalType": "uint256",
              "name": "fee",
              "type": "uint256"
            },
            {
              "internalType": "uint256",
              "name": "createdAt",
              "type": "uint256"
            },
            {
              "internalType": "uint256",
              "name": "expireAt",
              "type": "uint256"
            },
            {
              "internalType": "uint256",
              "name": "clearAt",
              "type": "uint256"
            },
            {
              "internalType": "enum EscrowHub.EscrowState",
              "name": "state",
              "type": "uint8"
            }
          ],
          "internalType": "struct EscrowHub.Escrow",
          "name": "",
          "type": "tuple"
        }
      ],
      "stateMutability": "view",
      "type": "function"
    },
    {
      "inputs": [
        {
          "internalType": "uint256",
          "name": "cursor",
          "type": "uint256"
        },
        {
          "internalType": "uint256",
          "name": "perPageCount",
          "type": "uint256"
        }
      ],
      "name": "fetchEscrowsPaginated",
      "outputs": [
        {
          "components": [
            {
              "internalType": "uint256",
              "name": "id",
              "type": "uint256"
            },
            {
              "internalType": "string",
              "name": "cid",
              "type": "string"
            },
            {
              "internalType": "address payable",
              "name": "buyer",
              "type": "address"
            },
            {
              "internalType": "address payable",
              "name": "seller",
              "type": "address"
            },
            {
              "internalType": "uint256",
              "name": "amount",
              "type": "uint256"
            },
            {
              "internalType": "uint256",
              "name": "fee",
              "type": "uint256"
            },
            {
              "internalType": "uint256",
              "name": "createdAt",
              "type": "uint256"
            },
            {
              "internalType": "uint256",
              "name": "expireAt",
              "type": "uint256"
            },
            {
              "internalType": "uint256",
              "name": "clearAt",
              "type": "uint256"
            },
            {
              "internalType": "enum EscrowHub.EscrowState",
              "name": "state",
              "type": "uint8"
            }
          ],
          "internalType": "struct EscrowHub.Escrow[]",
          "name": "data",
          "type": "tuple[]"
        },
        {
          "internalType": "uint256",
          "name": "totalItemCount",
          "type": "uint256"
        },
        {
          "internalType": "bool",
          "name": "hasNextPage",
          "type": "bool"
        },
        {
          "internalType": "uint256",
          "name": "nextCursor",
          "type": "uint256"
        }
      ],
      "stateMutability": "view",
      "type": "function"
    },
    {
      "inputs": [],
      "name": "fetchMyEscrows",
      "outputs": [
        {
          "components": [
            {
              "internalType": "uint256",
              "name": "id",
              "type": "uint256"
            },
            {
              "internalType": "string",
              "name": "cid",
              "type": "string"
            },
            {
              "internalType": "address payable",
              "name": "buyer",
              "type": "address"
            },
            {
              "internalType": "address payable",
              "name": "seller",
              "type": "address"
            },
            {
              "internalType": "uint256",
              "name": "amount",
              "type": "uint256"
            },
            {
              "internalType": "uint256",
              "name": "fee",
              "type": "uint256"
            },
            {
              "internalType": "uint256",
              "name": "createdAt",
              "type": "uint256"
            },
            {
              "internalType": "uint256",
              "name": "expireAt",
              "type": "uint256"
            },
            {
              "internalType": "uint256",
              "name": "clearAt",
              "type": "uint256"
            },
            {
              "internalType": "enum EscrowHub.EscrowState",
              "name": "state",
              "type": "uint8"
            }
          ],
          "internalType": "struct EscrowHub.Escrow[]",
          "name": "",
          "type": "tuple[]"
        }
      ],
      "stateMutability": "view",
      "type": "function"
    },
    {
      "inputs": [],
      "name": "initialize",
      "outputs": [],
      "stateMutability": "nonpayable",
      "type": "function"
    },
    {
      "inputs": [
        {
          "internalType": "address",
          "name": "_seller",
          "type": "address"
        },
        {
          "internalType": "string",
          "name": "_cid",
          "type": "string"
        },
        {
          "internalType": "uint256",
          "name": "expireIn",
          "type": "uint256"
        }
      ],
      "name": "newEscrow",
      "outputs": [],
      "stateMutability": "payable",
      "type": "function"
    },
    {
      "inputs": [],
      "name": "owner",
      "outputs": [
        {
          "internalType": "address",
          "name": "",
          "type": "address"
        }
      ],
      "stateMutability": "view",
      "type": "function"
    },
    {
      "inputs": [],
      "name": "proxiableUUID",
      "outputs": [
        {
          "internalType": "bytes32",
          "name": "",
          "type": "bytes32"
        }
      ],
      "stateMutability": "view",
      "type": "function"
    },
    {
      "inputs": [
        {
          "internalType": "uint256",
          "name": "_escrowId",
          "type": "uint256"
        }
      ],
      "name": "refund",
      "outputs": [],
      "stateMutability": "nonpayable",
      "type": "function"
    },
    {
      "inputs": [],
      "name": "renounceOwnership",
      "outputs": [],
      "stateMutability": "nonpayable",
      "type": "function"
    },
    {
      "inputs": [
        {
          "internalType": "address",
          "name": "newOwner",
          "type": "address"
        }
      ],
      "name": "transferOwnership",
      "outputs": [],
      "stateMutability": "nonpayable",
      "type": "function"
    },
    {
      "inputs": [
        {
          "internalType": "address",
          "name": "newImplementation",
          "type": "address"
        }
      ],
      "name": "upgradeTo",
      "outputs": [],
      "stateMutability": "nonpayable",
      "type": "function"
    },
    {
      "inputs": [
        {
          "internalType": "address",
          "name": "newImplementation",
          "type": "address"
        },
        {
          "internalType": "bytes",
          "name": "data",
          "type": "bytes"
        }
      ],
      "name": "upgradeToAndCall",
      "outputs": [],
      "stateMutability": "payable",
      "type": "function"
    }
  ],
  "bytecode": "0x60a06040523073ffffffffffffffffffffffffffffffffffffffff1660809073ffffffffffffffffffffffffffffffffffffffff1660601b8152503480156200004757600080fd5b50620000586200005e60201b60201c565b62000209565b600060019054906101000a900460ff1615620000b1576040517f08c379a0000000000000000000000000000000000000000000000000000000008152600401620000a8906200015d565b60405180910390fd5b60ff801660008054906101000a900460ff1660ff161015620001235760ff6000806101000a81548160ff021916908360ff1602179055507f7f26b83ff96e1f2b6a682f133852f6798a09c465da95921460cefb384740249860ff6040516200011a91906200017f565b60405180910390a15b565b6000620001346027836200019c565b91506200014182620001ba565b604082019050919050565b6200015781620001ad565b82525050565b60006020820190508181036000830152620001788162000125565b9050919050565b60006020820190506200019660008301846200014c565b92915050565b600082825260208201905092915050565b600060ff82169050919050565b7f496e697469616c697a61626c653a20636f6e747261637420697320696e69746960008201527f616c697a696e6700000000000000000000000000000000000000000000000000602082015250565b60805160601c614f9f6200024460003960008181610ec501528181610f54015281816114e60152818161157501526116250152614f9f6000f3fe6080604052600436106100dd5760003560e01c8063715018a61161007f5780639b0731af116100595780639b0731af14610244578063d0f81cbf1461026d578063ede6d084146102aa578063f2fde38b146102ea576100dd565b8063715018a6146101eb5780638129fc1c146102025780638da5cb5b14610219576100dd565b80633bd5d173116100bb5780633bd5d1731461015f5780634f1ef2861461018857806352d1902d146101a45780636fbac0fa146101cf576100dd565b8063261582b9146100e2578063278ecde11461010d5780633659cfe614610136575b600080fd5b3480156100ee57600080fd5b506100f7610313565b6040516101049190614078565b60405180910390f35b34801561011957600080fd5b50610134600480360381019061012f919061392f565b610a58565b005b34801561014257600080fd5b5061015d60048036038101906101589190613822565b610ec3565b005b34801561016b57600080fd5b506101866004803603810190610181919061392f565b611072565b005b6101a2600480360381019061019d919061384b565b6114e4565b005b3480156101b057600080fd5b506101b9611621565b6040516101c691906140e6565b60405180910390f35b6101e960048036038101906101e4919061389f565b6116da565b005b3480156101f757600080fd5b50610200611c48565b005b34801561020e57600080fd5b50610217611c5c565b005b34801561022557600080fd5b5061022e611daa565b60405161023b919061405d565b60405180910390f35b34801561025057600080fd5b5061026b6004803603810190610266919061392f565b611dd4565b005b34801561027957600080fd5b50610294600480360381019061028f919061392f565b61229f565b6040516102a19190614464565b60405180910390f35b3480156102b657600080fd5b506102d160048036038101906102cc9190613958565b6124ce565b6040516102e1949392919061409a565b60405180910390f35b3480156102f657600080fd5b50610311600480360381019061030c9190613822565b612d74565b005b60603373ffffffffffffffffffffffffffffffffffffffff16610334611daa565b73ffffffffffffffffffffffffffffffffffffffff16141561067557600061035c60fb612df8565b905060008167ffffffffffffffff8111156103a0577f4e487b7100000000000000000000000000000000000000000000000000000000600052604160045260246000fd5b6040519080825280602002602001820160405280156103d957816020015b6103c66135b9565b8152602001906001900390816103be5790505b50905060005b8281101561066a5760fc60006001836103f8919061459e565b8152602001908152602001600020604051806101400160405290816000820154815260200160018201805461042c906147d3565b80601f0160208091040260200160405190810160405280929190818152602001828054610458906147d3565b80156104a55780601f1061047a576101008083540402835291602001916104a5565b820191906000526020600020905b81548152906001019060200180831161048857829003601f168201915b505050505081526020016002820160009054906101000a900473ffffffffffffffffffffffffffffffffffffffff1673ffffffffffffffffffffffffffffffffffffffff1673ffffffffffffffffffffffffffffffffffffffff1681526020016003820160009054906101000a900473ffffffffffffffffffffffffffffffffffffffff1673ffffffffffffffffffffffffffffffffffffffff1673ffffffffffffffffffffffffffffffffffffffff16815260200160048201548152602001600582015481526020016006820154815260200160078201548152602001600882015481526020016009820160009054906101000a900460ff1660038111156105d7577f4e487b7100000000000000000000000000000000000000000000000000000000600052602160045260246000fd5b600381111561060f577f4e487b7100000000000000000000000000000000000000000000000000000000600052602160045260246000fd5b8152505082828151811061064c577f4e487b7100000000000000000000000000000000000000000000000000000000600052603260045260246000fd5b6020026020010181905250808061066290614836565b9150506103df565b508092505050610a55565b600060fd60003373ffffffffffffffffffffffffffffffffffffffff1673ffffffffffffffffffffffffffffffffffffffff1681526020019081526020016000205467ffffffffffffffff8111156106f6577f4e487b7100000000000000000000000000000000000000000000000000000000600052604160045260246000fd5b60405190808252806020026020018201604052801561072f57816020015b61071c6135b9565b8152602001906001900390816107145790505b50905060005b60fd60003373ffffffffffffffffffffffffffffffffffffffff1673ffffffffffffffffffffffffffffffffffffffff16815260200190815260200160002054811015610a4f5760fc600060fe60003373ffffffffffffffffffffffffffffffffffffffff1673ffffffffffffffffffffffffffffffffffffffff16815260200190815260200160002060006001856107ce919061459e565b81526020019081526020016000205481526020019081526020016000206040518061014001604052908160008201548152602001600182018054610811906147d3565b80601f016020809104026020016040519081016040528092919081815260200182805461083d906147d3565b801561088a5780601f1061085f5761010080835404028352916020019161088a565b820191906000526020600020905b81548152906001019060200180831161086d57829003601f168201915b505050505081526020016002820160009054906101000a900473ffffffffffffffffffffffffffffffffffffffff1673ffffffffffffffffffffffffffffffffffffffff1673ffffffffffffffffffffffffffffffffffffffff1681526020016003820160009054906101000a900473ffffffffffffffffffffffffffffffffffffffff1673ffffffffffffffffffffffffffffffffffffffff1673ffffffffffffffffffffffffffffffffffffffff16815260200160048201548152602001600582015481526020016006820154815260200160078201548152602001600882015481526020016009820160009054906101000a900460ff1660038111156109bc577f4e487b7100000000000000000000000000000000000000000000000000000000600052602160045260246000fd5b60038111156109f4577f4e487b7100000000000000000000000000000000000000000000000000000000600052602160045260246000fd5b81525050828281518110610a31577f4e487b7100000000000000000000000000000000000000000000000000000000600052603260045260246000fd5b60200260200101819052508080610a4790614836565b915050610735565b50809150505b90565b803373ffffffffffffffffffffffffffffffffffffffff1660fc600083815260200190815260200160002060030160009054906101000a900473ffffffffffffffffffffffffffffffffffffffff1673ffffffffffffffffffffffffffffffffffffffff161480610afb57503373ffffffffffffffffffffffffffffffffffffffff16610ae3611daa565b73ffffffffffffffffffffffffffffffffffffffff16145b610b3a576040517f08c379a0000000000000000000000000000000000000000000000000000000008152600401610b3190614244565b60405180910390fd5b60026001541415610b80576040517f08c379a0000000000000000000000000000000000000000000000000000000008152600401610b7790614444565b60405180910390fd5b600260018190555060006003811115610bc2577f4e487b7100000000000000000000000000000000000000000000000000000000600052602160045260246000fd5b60fc600084815260200190815260200160002060090160009054906101000a900460ff166003811115610c1e577f4e487b7100000000000000000000000000000000000000000000000000000000600052602160045260246000fd5b14610c5e576040517f08c379a0000000000000000000000000000000000000000000000000000000008152600401610c5590614264565b60405180910390fd5b60fc600083815260200190815260200160002060020160009054906101000a900473ffffffffffffffffffffffffffffffffffffffff1673ffffffffffffffffffffffffffffffffffffffff166108fc60fc60008581526020019081526020016000206005015460fc600086815260200190815260200160002060040154610ce6919061459e565b9081150290604051600060405180830381858888f19350505050158015610d11573d6000803e3d6000fd5b504260fc600084815260200190815260200160002060080181905550600360fc600084815260200190815260200160002060090160006101000a81548160ff02191690836003811115610d8d577f4e487b7100000000000000000000000000000000000000000000000000000000600052602160045260246000fd5b0217905550600380811115610dcb577f4e487b7100000000000000000000000000000000000000000000000000000000600052602160045260246000fd5b827facfcb6d1fa91c83112102ce242b5502826bbc1a8114bc5030f4b4bd844dc3e6760fc600086815260200190815260200160002060010160fc600087815260200190815260200160002060020160009054906101000a900473ffffffffffffffffffffffffffffffffffffffff1660fc600088815260200190815260200160002060030160009054906101000a900473ffffffffffffffffffffffffffffffffffffffff1660fc60008981526020019081526020016000206004015460fc60008a815260200190815260200160002060050154604051610eb095949392919061418a565b60405180910390a3600180819055505050565b7f000000000000000000000000000000000000000000000000000000000000000073ffffffffffffffffffffffffffffffffffffffff163073ffffffffffffffffffffffffffffffffffffffff161415610f52576040517f08c379a0000000000000000000000000000000000000000000000000000000008152600401610f4990614204565b60405180910390fd5b7f000000000000000000000000000000000000000000000000000000000000000073ffffffffffffffffffffffffffffffffffffffff16610f91612e06565b73ffffffffffffffffffffffffffffffffffffffff1614610fe7576040517f08c379a0000000000000000000000000000000000000000000000000000000008152600401610fde90614224565b60405180910390fd5b610ff081612e5d565b61106f81600067ffffffffffffffff811115611035577f4e487b7100000000000000000000000000000000000000000000000000000000600052604160045260246000fd5b6040519080825280601f01601f1916602001820160405280156110675781602001600182028036833780820191505090505b506000612e68565b50565b803373ffffffffffffffffffffffffffffffffffffffff1660fc600083815260200190815260200160002060020160009054906101000a900473ffffffffffffffffffffffffffffffffffffffff1673ffffffffffffffffffffffffffffffffffffffff1614611117576040517f08c379a000000000000000000000000000000000000000000000000000000000815260040161110e90614284565b60405180910390fd5b6002600154141561115d576040517f08c379a000000000000000000000000000000000000000000000000000000000815260040161115490614444565b60405180910390fd5b60026001819055506000600381111561119f577f4e487b7100000000000000000000000000000000000000000000000000000000600052602160045260246000fd5b60fc600084815260200190815260200160002060090160009054906101000a900460ff1660038111156111fb577f4e487b7100000000000000000000000000000000000000000000000000000000600052602160045260246000fd5b1461123b576040517f08c379a000000000000000000000000000000000000000000000000000000000815260040161123290614364565b60405180910390fd5b60fc600083815260200190815260200160002060030160009054906101000a900473ffffffffffffffffffffffffffffffffffffffff1673ffffffffffffffffffffffffffffffffffffffff166108fc60fc6000858152602001908152602001600020600401549081150290604051600060405180830381858888f193505050501580156112cd573d6000803e3d6000fd5b506112d6611daa565b73ffffffffffffffffffffffffffffffffffffffff166108fc60fc6000858152602001908152602001600020600501549081150290604051600060405180830381858888f19350505050158015611331573d6000803e3d6000fd5b504260fc600084815260200190815260200160002060080181905550600160fc600084815260200190815260200160002060090160006101000a81548160ff021916908360038111156113ad577f4e487b7100000000000000000000000000000000000000000000000000000000600052602160045260246000fd5b0217905550600160038111156113ec577f4e487b7100000000000000000000000000000000000000000000000000000000600052602160045260246000fd5b827facfcb6d1fa91c83112102ce242b5502826bbc1a8114bc5030f4b4bd844dc3e6760fc600086815260200190815260200160002060010160fc600087815260200190815260200160002060020160009054906101000a900473ffffffffffffffffffffffffffffffffffffffff1660fc600088815260200190815260200160002060030160009054906101000a900473ffffffffffffffffffffffffffffffffffffffff1660fc60008981526020019081526020016000206004015460fc60008a8152602001908152602001600020600501546040516114d195949392919061418a565b60405180910390a3600180819055505050565b7f000000000000000000000000000000000000000000000000000000000000000073ffffffffffffffffffffffffffffffffffffffff163073ffffffffffffffffffffffffffffffffffffffff161415611573576040517f08c379a000000000000000000000000000000000000000000000000000000000815260040161156a90614204565b60405180910390fd5b7f000000000000000000000000000000000000000000000000000000000000000073ffffffffffffffffffffffffffffffffffffffff166115b2612e06565b73ffffffffffffffffffffffffffffffffffffffff1614611608576040517f08c379a00000000000000000000000000000000000000000000000000000000081526004016115ff90614224565b60405180910390fd5b61161182612e5d565b61161d82826001612e68565b5050565b60007f000000000000000000000000000000000000000000000000000000000000000073ffffffffffffffffffffffffffffffffffffffff163073ffffffffffffffffffffffffffffffffffffffff16146116b1576040517f08c379a00000000000000000000000000000000000000000000000000000000081526004016116a8906142a4565b60405180910390fd5b7f360894a13ba1a3210667c828492db98dca3e2076cc3735a920a3ca505d382bbc60001b905090565b60026001541415611720576040517f08c379a000000000000000000000000000000000000000000000000000000000815260040161171790614444565b60405180910390fd5b600260018190555061173260fb612fe5565b600061173e60fb612df8565b90506001341015611784576040517f08c379a000000000000000000000000000000000000000000000000000000000815260040161177b90614424565b60405180910390fd5b600060646001346117959190614625565b61179f91906145f4565b9050600081346117af919061467f565b90506040518061014001604052808481526020018681526020013373ffffffffffffffffffffffffffffffffffffffff1681526020018773ffffffffffffffffffffffffffffffffffffffff168152602001828152602001838152602001428152602001858152602001600081526020016000600381111561185a577f4e487b7100000000000000000000000000000000000000000000000000000000600052602160045260246000fd5b81525060fc6000858152602001908152602001600020600082015181600001556020820151816001019080519060200190611896929190613670565b5060408201518160020160006101000a81548173ffffffffffffffffffffffffffffffffffffffff021916908373ffffffffffffffffffffffffffffffffffffffff16021790555060608201518160030160006101000a81548173ffffffffffffffffffffffffffffffffffffffff021916908373ffffffffffffffffffffffffffffffffffffffff1602179055506080820151816004015560a0820151816005015560c0820151816006015560e0820151816007015561010082015181600801556101208201518160090160006101000a81548160ff021916908360038111156119aa577f4e487b7100000000000000000000000000000000000000000000000000000000600052602160045260246000fd5b0217905550905050600160fd60003373ffffffffffffffffffffffffffffffffffffffff1673ffffffffffffffffffffffffffffffffffffffff168152602001908152602001600020546119fe919061459e565b60fd60003373ffffffffffffffffffffffffffffffffffffffff1673ffffffffffffffffffffffffffffffffffffffff168152602001908152602001600020819055508260fe60003373ffffffffffffffffffffffffffffffffffffffff1673ffffffffffffffffffffffffffffffffffffffff168152602001908152602001600020600060fd60003373ffffffffffffffffffffffffffffffffffffffff1673ffffffffffffffffffffffffffffffffffffffff16815260200190815260200160002054815260200190815260200160002081905550600160fd60008873ffffffffffffffffffffffffffffffffffffffff1673ffffffffffffffffffffffffffffffffffffffff16815260200190815260200160002054611b21919061459e565b60fd60008873ffffffffffffffffffffffffffffffffffffffff1673ffffffffffffffffffffffffffffffffffffffff168152602001908152602001600020819055508260fe60008873ffffffffffffffffffffffffffffffffffffffff1673ffffffffffffffffffffffffffffffffffffffff168152602001908152602001600020600060fd60008a73ffffffffffffffffffffffffffffffffffffffff1673ffffffffffffffffffffffffffffffffffffffff168152602001908152602001600020548152602001908152602001600020819055508181847fb9e71d1f685b313accb4809b03f62dc9601718815d3758ed626f3802e7f005b188338b6000604051611c31949392919061413e565b60405180910390a450505060018081905550505050565b611c50612ffb565b611c5a6000613079565b565b60008060019054906101000a900460ff16159050808015611c8d5750600160008054906101000a900460ff1660ff16105b80611cba5750611c9c3061313f565b158015611cb95750600160008054906101000a900460ff1660ff16145b5b611cf9576040517f08c379a0000000000000000000000000000000000000000000000000000000008152600401611cf0906142e4565b60405180910390fd5b60016000806101000a81548160ff021916908360ff1602179055508015611d36576001600060016101000a81548160ff0219169083151502179055505b611d3e613162565b611d466131bb565b611d4e613214565b8015611da75760008060016101000a81548160ff0219169083151502179055507f7f26b83ff96e1f2b6a682f133852f6798a09c465da95921460cefb38474024986001604051611d9e9190614101565b60405180910390a15b50565b6000606560009054906101000a900473ffffffffffffffffffffffffffffffffffffffff16905090565b803373ffffffffffffffffffffffffffffffffffffffff1660fc600083815260200190815260200160002060030160009054906101000a900473ffffffffffffffffffffffffffffffffffffffff1673ffffffffffffffffffffffffffffffffffffffff1614611e79576040517f08c379a0000000000000000000000000000000000000000000000000000000008152600401611e70906143e4565b60405180910390fd5b60026001541415611ebf576040517f08c379a0000000000000000000000000000000000000000000000000000000008152600401611eb690614444565b60405180910390fd5b60026001819055504260fc6000848152602001908152602001600020600701541115611f20576040517f08c379a0000000000000000000000000000000000000000000000000000000008152600401611f1790614324565b60405180910390fd5b60006003811115611f5a577f4e487b7100000000000000000000000000000000000000000000000000000000600052602160045260246000fd5b60fc600084815260200190815260200160002060090160009054906101000a900460ff166003811115611fb6577f4e487b7100000000000000000000000000000000000000000000000000000000600052602160045260246000fd5b14611ff6576040517f08c379a0000000000000000000000000000000000000000000000000000000008152600401611fed906143a4565b60405180910390fd5b60fc600083815260200190815260200160002060030160009054906101000a900473ffffffffffffffffffffffffffffffffffffffff1673ffffffffffffffffffffffffffffffffffffffff166108fc60fc6000858152602001908152602001600020600401549081150290604051600060405180830381858888f19350505050158015612088573d6000803e3d6000fd5b50612091611daa565b73ffffffffffffffffffffffffffffffffffffffff166108fc60fc6000858152602001908152602001600020600501549081150290604051600060405180830381858888f193505050501580156120ec573d6000803e3d6000fd5b504260fc600084815260200190815260200160002060080181905550600260fc600084815260200190815260200160002060090160006101000a81548160ff02191690836003811115612168577f4e487b7100000000000000000000000000000000000000000000000000000000600052602160045260246000fd5b0217905550600260038111156121a7577f4e487b7100000000000000000000000000000000000000000000000000000000600052602160045260246000fd5b827facfcb6d1fa91c83112102ce242b5502826bbc1a8114bc5030f4b4bd844dc3e6760fc600086815260200190815260200160002060010160fc600087815260200190815260200160002060020160009054906101000a900473ffffffffffffffffffffffffffffffffffffffff1660fc600088815260200190815260200160002060030160009054906101000a900473ffffffffffffffffffffffffffffffffffffffff1660fc60008981526020019081526020016000206004015460fc60008a81526020019081526020016000206005015460405161228c95949392919061418a565b60405180910390a3600180819055505050565b6122a76135b9565b60fc600083815260200190815260200160002060405180610140016040529081600082015481526020016001820180546122e0906147d3565b80601f016020809104026020016040519081016040528092919081815260200182805461230c906147d3565b80156123595780601f1061232e57610100808354040283529160200191612359565b820191906000526020600020905b81548152906001019060200180831161233c57829003601f168201915b505050505081526020016002820160009054906101000a900473ffffffffffffffffffffffffffffffffffffffff1673ffffffffffffffffffffffffffffffffffffffff1673ffffffffffffffffffffffffffffffffffffffff1681526020016003820160009054906101000a900473ffffffffffffffffffffffffffffffffffffffff1673ffffffffffffffffffffffffffffffffffffffff1673ffffffffffffffffffffffffffffffffffffffff16815260200160048201548152602001600582015481526020016006820154815260200160078201548152602001600882015481526020016009820160009054906101000a900460ff16600381111561248b577f4e487b7100000000000000000000000000000000000000000000000000000000600052602160045260246000fd5b60038111156124c3577f4e487b7100000000000000000000000000000000000000000000000000000000600052602160045260246000fd5b815250509050919050565b60606000806000808590503373ffffffffffffffffffffffffffffffffffffffff166124f8611daa565b73ffffffffffffffffffffffffffffffffffffffff1614156128a357600061252060fb612df8565b90506000600190508882612534919061467f565b831115612552578882612547919061467f565b92506000905061256b565b888261255e919061467f565b83141561256a57600090505b5b60008367ffffffffffffffff8111156125ad577f4e487b7100000000000000000000000000000000000000000000000000000000600052604160045260246000fd5b6040519080825280602002602001820160405280156125e657816020015b6125d36135b9565b8152602001906001900390816125cb5790505b50905060005b848110156128825760fc60006001838e612606919061459e565b612610919061459e565b81526020019081526020016000206040518061014001604052908160008201548152602001600182018054612644906147d3565b80601f0160208091040260200160405190810160405280929190818152602001828054612670906147d3565b80156126bd5780601f10612692576101008083540402835291602001916126bd565b820191906000526020600020905b8154815290600101906020018083116126a057829003601f168201915b505050505081526020016002820160009054906101000a900473ffffffffffffffffffffffffffffffffffffffff1673ffffffffffffffffffffffffffffffffffffffff1673ffffffffffffffffffffffffffffffffffffffff1681526020016003820160009054906101000a900473ffffffffffffffffffffffffffffffffffffffff1673ffffffffffffffffffffffffffffffffffffffff1673ffffffffffffffffffffffffffffffffffffffff16815260200160048201548152602001600582015481526020016006820154815260200160078201548152602001600882015481526020016009820160009054906101000a900460ff1660038111156127ef577f4e487b7100000000000000000000000000000000000000000000000000000000600052602160045260246000fd5b6003811115612827577f4e487b7100000000000000000000000000000000000000000000000000000000600052602160045260246000fd5b81525050828281518110612864577f4e487b7100000000000000000000000000000000000000000000000000000000600052603260045260246000fd5b6020026020010181905250808061287a90614836565b9150506125ec565b50808383868d612892919061459e565b975097509750975050505050612d6b565b6000600190508760fd60003373ffffffffffffffffffffffffffffffffffffffff1673ffffffffffffffffffffffffffffffffffffffff168152602001908152602001600020546128f4919061467f565b821115612951578760fd60003373ffffffffffffffffffffffffffffffffffffffff1673ffffffffffffffffffffffffffffffffffffffff16815260200190815260200160002054612946919061467f565b9150600090506129a9565b8760fd60003373ffffffffffffffffffffffffffffffffffffffff1673ffffffffffffffffffffffffffffffffffffffff1681526020019081526020016000205461299c919061467f565b8214156129a857600090505b5b60008267ffffffffffffffff8111156129eb577f4e487b7100000000000000000000000000000000000000000000000000000000600052604160045260246000fd5b604051908082528060200260200182016040528015612a2457816020015b612a116135b9565b815260200190600190039081612a095790505b50905060005b83811015612d105760fc600060fe60003373ffffffffffffffffffffffffffffffffffffffff1673ffffffffffffffffffffffffffffffffffffffff16815260200190815260200160002060006001858f612a85919061459e565b612a8f919061459e565b81526020019081526020016000205481526020019081526020016000206040518061014001604052908160008201548152602001600182018054612ad2906147d3565b80601f0160208091040260200160405190810160405280929190818152602001828054612afe906147d3565b8015612b4b5780601f10612b2057610100808354040283529160200191612b4b565b820191906000526020600020905b815481529060010190602001808311612b2e57829003601f168201915b505050505081526020016002820160009054906101000a900473ffffffffffffffffffffffffffffffffffffffff1673ffffffffffffffffffffffffffffffffffffffff1673ffffffffffffffffffffffffffffffffffffffff1681526020016003820160009054906101000a900473ffffffffffffffffffffffffffffffffffffffff1673ffffffffffffffffffffffffffffffffffffffff1673ffffffffffffffffffffffffffffffffffffffff16815260200160048201548152602001600582015481526020016006820154815260200160078201548152602001600882015481526020016009820160009054906101000a900460ff166003811115612c7d577f4e487b7100000000000000000000000000000000000000000000000000000000600052602160045260246000fd5b6003811115612cb5577f4e487b7100000000000000000000000000000000000000000000000000000000600052602160045260246000fd5b81525050828281518110612cf2577f4e487b7100000000000000000000000000000000000000000000000000000000600052603260045260246000fd5b60200260200101819052508080612d0890614836565b915050612a2a565b508060fd60003373ffffffffffffffffffffffffffffffffffffffff1673ffffffffffffffffffffffffffffffffffffffff1681526020019081526020016000205483858c612d5f919061459e565b96509650965096505050505b92959194509250565b612d7c612ffb565b600073ffffffffffffffffffffffffffffffffffffffff168173ffffffffffffffffffffffffffffffffffffffff161415612dec576040517f08c379a0000000000000000000000000000000000000000000000000000000008152600401612de3906141e4565b60405180910390fd5b612df581613079565b50565b600081600001549050919050565b6000612e347f360894a13ba1a3210667c828492db98dca3e2076cc3735a920a3ca505d382bbc60001b613265565b60000160009054906101000a900473ffffffffffffffffffffffffffffffffffffffff16905090565b612e65612ffb565b50565b612e947f4910fdfa16fed3260ed0e7147f7cc6da11a60208b5b9406d12a635614ffd914360001b61326f565b60000160009054906101000a900460ff1615612eb857612eb383613279565b612fe0565b8273ffffffffffffffffffffffffffffffffffffffff166352d1902d6040518163ffffffff1660e01b815260040160206040518083038186803b158015612efe57600080fd5b505afa925050508015612f2f57506040513d601f19601f82011682018060405250810190612f2c9190613906565b60015b612f6e576040517f08c379a0000000000000000000000000000000000000000000000000000000008152600401612f6590614304565b60405180910390fd5b7f360894a13ba1a3210667c828492db98dca3e2076cc3735a920a3ca505d382bbc60001b8114612fd3576040517f08c379a0000000000000000000000000000000000000000000000000000000008152600401612fca906142c4565b60405180910390fd5b50612fdf838383613332565b5b505050565b6001816000016000828254019250508190555050565b61300361335e565b73ffffffffffffffffffffffffffffffffffffffff16613021611daa565b73ffffffffffffffffffffffffffffffffffffffff1614613077576040517f08c379a000000000000000000000000000000000000000000000000000000000815260040161306e90614384565b60405180910390fd5b565b6000606560009054906101000a900473ffffffffffffffffffffffffffffffffffffffff16905081606560006101000a81548173ffffffffffffffffffffffffffffffffffffffff021916908373ffffffffffffffffffffffffffffffffffffffff1602179055508173ffffffffffffffffffffffffffffffffffffffff168173ffffffffffffffffffffffffffffffffffffffff167f8be0079c531659141344cd1fd0a4f28419497f9722a3daafe3b4186f6b6457e060405160405180910390a35050565b6000808273ffffffffffffffffffffffffffffffffffffffff163b119050919050565b600060019054906101000a900460ff166131b1576040517f08c379a00000000000000000000000000000000000000000000000000000000081526004016131a890614404565b60405180910390fd5b6131b9613366565b565b600060019054906101000a900460ff1661320a576040517f08c379a000000000000000000000000000000000000000000000000000000000815260040161320190614404565b60405180910390fd5b6132126133be565b565b600060019054906101000a900460ff16613263576040517f08c379a000000000000000000000000000000000000000000000000000000000815260040161325a90614404565b60405180910390fd5b565b6000819050919050565b6000819050919050565b6132828161313f565b6132c1576040517f08c379a00000000000000000000000000000000000000000000000000000000081526004016132b890614344565b60405180910390fd5b806132ee7f360894a13ba1a3210667c828492db98dca3e2076cc3735a920a3ca505d382bbc60001b613265565b60000160006101000a81548173ffffffffffffffffffffffffffffffffffffffff021916908373ffffffffffffffffffffffffffffffffffffffff16021790555050565b61333b8361341f565b6000825111806133485750805b1561335957613357838361346e565b505b505050565b600033905090565b600060019054906101000a900460ff166133b5576040517f08c379a00000000000000000000000000000000000000000000000000000000081526004016133ac90614404565b60405180910390fd5b60018081905550565b600060019054906101000a900460ff1661340d576040517f08c379a000000000000000000000000000000000000000000000000000000000815260040161340490614404565b60405180910390fd5b61341d61341861335e565b613079565b565b61342881613279565b8073ffffffffffffffffffffffffffffffffffffffff167fbc7cd75a20ee27fd9adebab32041f755214dbc6bffa90cc0225b39da2e5c2d3b60405160405180910390a250565b60606134798361313f565b6134b8576040517f08c379a00000000000000000000000000000000000000000000000000000000081526004016134af906143c4565b60405180910390fd5b6000808473ffffffffffffffffffffffffffffffffffffffff16846040516134e09190614046565b600060405180830381855af49150503d806000811461351b576040519150601f19603f3d011682016040523d82523d6000602084013e613520565b606091505b50915091506135488282604051806060016040528060278152602001614f4360279139613552565b9250505092915050565b60608315613562578290506135b2565b6000835111156135755782518084602001fd5b816040517f08c379a00000000000000000000000000000000000000000000000000000000081526004016135a9919061411c565b60405180910390fd5b9392505050565b6040518061014001604052806000815260200160608152602001600073ffffffffffffffffffffffffffffffffffffffff168152602001600073ffffffffffffffffffffffffffffffffffffffff16815260200160008152602001600081526020016000815260200160008152602001600081526020016000600381111561366a577f4e487b7100000000000000000000000000000000000000000000000000000000600052602160045260246000fd5b81525090565b82805461367c906147d3565b90600052602060002090601f01602090048101928261369e57600085556136e5565b82601f106136b757805160ff19168380011785556136e5565b828001600101855582156136e5579182015b828111156136e45782518255916020019190600101906136c9565b5b5090506136f291906136f6565b5090565b5b8082111561370f5760008160009055506001016136f7565b5090565b6000613726613721846144ab565b614486565b90508281526020810184848401111561373e57600080fd5b613749848285614791565b509392505050565b600061376461375f846144dc565b614486565b90508281526020810184848401111561377c57600080fd5b613787848285614791565b509392505050565b60008135905061379e81614efd565b92915050565b6000815190506137b381614f14565b92915050565b600082601f8301126137ca57600080fd5b81356137da848260208601613713565b91505092915050565b600082601f8301126137f457600080fd5b8135613804848260208601613751565b91505092915050565b60008135905061381c81614f2b565b92915050565b60006020828403121561383457600080fd5b60006138428482850161378f565b91505092915050565b6000806040838503121561385e57600080fd5b600061386c8582860161378f565b925050602083013567ffffffffffffffff81111561388957600080fd5b613895858286016137b9565b9150509250929050565b6000806000606084860312156138b457600080fd5b60006138c28682870161378f565b935050602084013567ffffffffffffffff8111156138df57600080fd5b6138eb868287016137e3565b92505060406138fc8682870161380d565b9150509250925092565b60006020828403121561391857600080fd5b6000613926848285016137a4565b91505092915050565b60006020828403121561394157600080fd5b600061394f8482850161380d565b91505092915050565b6000806040838503121561396b57600080fd5b60006139798582860161380d565b925050602061398a8582860161380d565b9150509250929050565b60006139a08383613e74565b905092915050565b6139b181614737565b82525050565b6139c0816146c5565b82525050565b6139cf816146b3565b82525050565b60006139e082614532565b6139ea8185614560565b9350836020820285016139fc8561450d565b8060005b85811015613a385784840389528151613a198582613994565b9450613a2483614553565b925060208a01995050600181019050613a00565b50829750879550505050505092915050565b613a53816146d7565b82525050565b613a62816146e3565b82525050565b6000613a738261453d565b613a7d8185614571565b9350613a8d8185602086016147a0565b80840191505092915050565b613aa281614749565b82525050565b613ab181614749565b82525050565b613ac08161475b565b82525050565b6000613ad182614548565b613adb818561457c565b9350613aeb8185602086016147a0565b613af48161496a565b840191505092915050565b6000613b0a82614548565b613b14818561458d565b9350613b248185602086016147a0565b613b2d8161496a565b840191505092915050565b60008154613b45816147d3565b613b4f818661458d565b94506001821660008114613b6a5760018114613b7c57613baf565b60ff1983168652602086019350613baf565b613b858561451d565b60005b83811015613ba757815481890152600182019150602081019050613b88565b808801955050505b50505092915050565b6000613bc560268361458d565b9150613bd08261497b565b604082019050919050565b6000613be8602c8361458d565b9150613bf3826149ca565b604082019050919050565b6000613c0b602c8361458d565b9150613c1682614a19565b604082019050919050565b6000613c2e602c8361458d565b9150613c3982614a68565b604082019050919050565b6000613c5160308361458d565b9150613c5c82614ab7565b604082019050919050565b6000613c7460158361458d565b9150613c7f82614b06565b602082019050919050565b6000613c9760388361458d565b9150613ca282614b2f565b604082019050919050565b6000613cba60298361458d565b9150613cc582614b7e565b604082019050919050565b6000613cdd602e8361458d565b9150613ce882614bcd565b604082019050919050565b6000613d00602e8361458d565b9150613d0b82614c1c565b604082019050919050565b6000613d2360188361458d565b9150613d2e82614c6b565b602082019050919050565b6000613d46602d8361458d565b9150613d5182614c94565b604082019050919050565b6000613d6960358361458d565b9150613d7482614ce3565b604082019050919050565b6000613d8c60208361458d565b9150613d9782614d32565b602082019050919050565b6000613daf60338361458d565b9150613dba82614d5b565b604082019050919050565b6000613dd260268361458d565b9150613ddd82614daa565b604082019050919050565b6000613df560168361458d565b9150613e0082614df9565b602082019050919050565b6000613e18602b8361458d565b9150613e2382614e22565b604082019050919050565b6000613e3b60298361458d565b9150613e4682614e71565b604082019050919050565b6000613e5e601f8361458d565b9150613e6982614ec0565b602082019050919050565b600061014083016000830151613e8d6000860182614028565b5060208301518482036020860152613ea58282613ac6565b9150506040830151613eba60408601826139b7565b506060830151613ecd60608601826139b7565b506080830151613ee06080860182614028565b5060a0830151613ef360a0860182614028565b5060c0830151613f0660c0860182614028565b5060e0830151613f1960e0860182614028565b50610100830151613f2e610100860182614028565b50610120830151613f43610120860182613a99565b508091505092915050565b600061014083016000830151613f676000860182614028565b5060208301518482036020860152613f7f8282613ac6565b9150506040830151613f9460408601826139b7565b506060830151613fa760608601826139b7565b506080830151613fba6080860182614028565b5060a0830151613fcd60a0860182614028565b5060c0830151613fe060c0860182614028565b5060e0830151613ff360e0860182614028565b50610100830151614008610100860182614028565b5061012083015161401d610120860182613a99565b508091505092915050565b61403181614720565b82525050565b61404081614720565b82525050565b60006140528284613a68565b915081905092915050565b600060208201905061407260008301846139c6565b92915050565b6000602082019050818103600083015261409281846139d5565b905092915050565b600060808201905081810360008301526140b481876139d5565b90506140c36020830186614037565b6140d06040830185613a4a565b6140dd6060830184614037565b95945050505050565b60006020820190506140fb6000830184613a59565b92915050565b60006020820190506141166000830184613ab7565b92915050565b600060208201905081810360008301526141368184613aff565b905092915050565b600060808201905081810360008301526141588187613aff565b905061416760208301866139c6565b61417460408301856139c6565b6141816060830184613aa8565b95945050505050565b600060a08201905081810360008301526141a48188613b38565b90506141b360208301876139a8565b6141c060408301866139a8565b6141cd6060830185614037565b6141da6080830184614037565b9695505050505050565b600060208201905081810360008301526141fd81613bb8565b9050919050565b6000602082019050818103600083015261421d81613bdb565b9050919050565b6000602082019050818103600083015261423d81613bfe565b9050919050565b6000602082019050818103600083015261425d81613c21565b9050919050565b6000602082019050818103600083015261427d81613c44565b9050919050565b6000602082019050818103600083015261429d81613c67565b9050919050565b600060208201905081810360008301526142bd81613c8a565b9050919050565b600060208201905081810360008301526142dd81613cad565b9050919050565b600060208201905081810360008301526142fd81613cd0565b9050919050565b6000602082019050818103600083015261431d81613cf3565b9050919050565b6000602082019050818103600083015261433d81613d16565b9050919050565b6000602082019050818103600083015261435d81613d39565b9050919050565b6000602082019050818103600083015261437d81613d5c565b9050919050565b6000602082019050818103600083015261439d81613d7f565b9050919050565b600060208201905081810360008301526143bd81613da2565b9050919050565b600060208201905081810360008301526143dd81613dc5565b9050919050565b600060208201905081810360008301526143fd81613de8565b9050919050565b6000602082019050818103600083015261441d81613e0b565b9050919050565b6000602082019050818103600083015261443d81613e2e565b9050919050565b6000602082019050818103600083015261445d81613e51565b9050919050565b6000602082019050818103600083015261447e8184613f4e565b905092915050565b60006144906144a1565b905061449c8282614805565b919050565b6000604051905090565b600067ffffffffffffffff8211156144c6576144c561493b565b5b6144cf8261496a565b9050602081019050919050565b600067ffffffffffffffff8211156144f7576144f661493b565b5b6145008261496a565b9050602081019050919050565b6000819050602082019050919050565b60008190508160005260206000209050919050565b600081519050919050565b600081519050919050565b600081519050919050565b6000602082019050919050565b600082825260208201905092915050565b600081905092915050565b600082825260208201905092915050565b600082825260208201905092915050565b60006145a982614720565b91506145b483614720565b9250827fffffffffffffffffffffffffffffffffffffffffffffffffffffffffffffffff038211156145e9576145e861487f565b5b828201905092915050565b60006145ff82614720565b915061460a83614720565b92508261461a576146196148ae565b5b828204905092915050565b600061463082614720565b915061463b83614720565b9250817fffffffffffffffffffffffffffffffffffffffffffffffffffffffffffffffff04831182151516156146745761467361487f565b5b828202905092915050565b600061468a82614720565b915061469583614720565b9250828210156146a8576146a761487f565b5b828203905092915050565b60006146be82614700565b9050919050565b60006146d082614700565b9050919050565b60008115159050919050565b6000819050919050565b60008190506146fb82614ee9565b919050565b600073ffffffffffffffffffffffffffffffffffffffff82169050919050565b6000819050919050565b600060ff82169050919050565b60006147428261476d565b9050919050565b6000614754826146ed565b9050919050565b60006147668261472a565b9050919050565b60006147788261477f565b9050919050565b600061478a82614700565b9050919050565b82818337600083830152505050565b60005b838110156147be5780820151818401526020810190506147a3565b838111156147cd576000848401525b50505050565b600060028204905060018216806147eb57607f821691505b602082108114156147ff576147fe61490c565b5b50919050565b61480e8261496a565b810181811067ffffffffffffffff8211171561482d5761482c61493b565b5b80604052505050565b600061484182614720565b91507fffffffffffffffffffffffffffffffffffffffffffffffffffffffffffffffff8214156148745761487361487f565b5b600182019050919050565b7f4e487b7100000000000000000000000000000000000000000000000000000000600052601160045260246000fd5b7f4e487b7100000000000000000000000000000000000000000000000000000000600052601260045260246000fd5b7f4e487b7100000000000000000000000000000000000000000000000000000000600052602160045260246000fd5b7f4e487b7100000000000000000000000000000000000000000000000000000000600052602260045260246000fd5b7f4e487b7100000000000000000000000000000000000000000000000000000000600052604160045260246000fd5b6000601f19601f8301169050919050565b7f4f776e61626c653a206e6577206f776e657220697320746865207a65726f206160008201527f6464726573730000000000000000000000000000000000000000000000000000602082015250565b7f46756e6374696f6e206d7573742062652063616c6c6564207468726f7567682060008201527f64656c656761746563616c6c0000000000000000000000000000000000000000602082015250565b7f46756e6374696f6e206d7573742062652063616c6c6564207468726f7567682060008201527f6163746976652070726f78790000000000000000000000000000000000000000602082015250565b7f4f6e6c792073656c6c6572206f72204f776e65722063616e20706572666f726d60008201527f207468697320616374696f6e0000000000000000000000000000000000000000602082015250565b7f43616e277420726566756e64207468697320657363726f772e20416c7265616460008201527f792075706461746564206265666f726500000000000000000000000000000000602082015250565b7f4f6e6c792042757965722043616e204163636573730000000000000000000000600082015250565b7f555550535570677261646561626c653a206d757374206e6f742062652063616c60008201527f6c6564207468726f7567682064656c656761746563616c6c0000000000000000602082015250565b7f45524331393637557067726164653a20756e737570706f727465642070726f7860008201527f6961626c65555549440000000000000000000000000000000000000000000000602082015250565b7f496e697469616c697a61626c653a20636f6e747261637420697320616c72656160008201527f647920696e697469616c697a6564000000000000000000000000000000000000602082015250565b7f45524331393637557067726164653a206e657720696d706c656d656e7461746960008201527f6f6e206973206e6f742055555053000000000000000000000000000000000000602082015250565b7f457363726f772069736e27742065787069726564207965740000000000000000600082015250565b7f455243313936373a206e657720696d706c656d656e746174696f6e206973206e60008201527f6f74206120636f6e747261637400000000000000000000000000000000000000602082015250565b7f596f752063616e27742064656c69766572207468697320657363726f772e204160008201527f6c72656164792075706461746564206265666f72650000000000000000000000602082015250565b7f4f776e61626c653a2063616c6c6572206973206e6f7420746865206f776e6572600082015250565b7f596f752063616e277420636c61696d207468697320657363726f772e20416c7260008201527f656164792075706461746564206265666f726500000000000000000000000000602082015250565b7f416464726573733a2064656c65676174652063616c6c20746f206e6f6e2d636f60008201527f6e74726163740000000000000000000000000000000000000000000000000000602082015250565b7f4f6e6c792053656c6c65722043616e2041636365737300000000000000000000600082015250565b7f496e697469616c697a61626c653a20636f6e7472616374206973206e6f74206960008201527f6e697469616c697a696e67000000000000000000000000000000000000000000602082015250565b7f457363726f77206d757374206265206c6172676572207468616e206d696e696d60008201527f756d20616d6f756e740000000000000000000000000000000000000000000000602082015250565b7f5265656e7472616e637947756172643a207265656e7472616e742063616c6c00600082015250565b60048110614efa57614ef96148dd565b5b50565b614f06816146b3565b8114614f1157600080fd5b50565b614f1d816146e3565b8114614f2857600080fd5b50565b614f3481614720565b8114614f3f57600080fd5b5056fe416464726573733a206c6f772d6c6576656c2064656c65676174652063616c6c206661696c6564a2646970667358221220f00b1ff45b5fb0692b93e7f73ad4b25df3c5b06559952e1ffd145074e62cee6c64736f6c63430008040033",
  "linkReferences": {},
  "deployedLinkReferences": {}
}